{
  "contractName": "BadgeTokenFactory",
  "abi": [
    {
      "inputs": [
        {
          "internalType": "address",
          "name": "_badgeDefinitionFactoryAddress",
          "type": "address"
        }
      ],
      "stateMutability": "nonpayable",
      "type": "constructor"
    },
    {
      "anonymous": false,
      "inputs": [
        {
          "indexed": true,
          "internalType": "address",
          "name": "owner",
          "type": "address"
        },
        {
          "indexed": true,
          "internalType": "address",
          "name": "approved",
          "type": "address"
        },
        {
          "indexed": true,
          "internalType": "uint256",
          "name": "tokenId",
          "type": "uint256"
        }
      ],
      "name": "Approval",
      "type": "event"
    },
    {
      "anonymous": false,
      "inputs": [
        {
          "indexed": true,
          "internalType": "address",
          "name": "owner",
          "type": "address"
        },
        {
          "indexed": true,
          "internalType": "address",
          "name": "operator",
          "type": "address"
        },
        {
          "indexed": false,
          "internalType": "bool",
          "name": "approved",
          "type": "bool"
        }
      ],
      "name": "ApprovalForAll",
      "type": "event"
    },
    {
      "anonymous": false,
      "inputs": [
        {
          "indexed": false,
          "internalType": "address",
          "name": "_caller",
          "type": "address"
        },
        {
          "indexed": false,
          "internalType": "uint256",
          "name": "_badgeDefinitionId",
          "type": "uint256"
        }
      ],
      "name": "BadgeTokenReady",
      "type": "event"
    },
    {
      "anonymous": false,
      "inputs": [
        {
          "indexed": false,
          "internalType": "uint256",
          "name": "_badgeTokenId",
          "type": "uint256"
        },
        {
          "indexed": false,
          "internalType": "address",
          "name": "_originalOwner",
          "type": "address"
        }
      ],
      "name": "NewBadgeToken",
      "type": "event"
    },
    {
      "anonymous": false,
      "inputs": [
        {
          "indexed": true,
          "internalType": "address",
          "name": "previousOwner",
          "type": "address"
        },
        {
          "indexed": true,
          "internalType": "address",
          "name": "newOwner",
          "type": "address"
        }
      ],
      "name": "OwnershipTransferred",
      "type": "event"
    },
    {
      "anonymous": false,
      "inputs": [
        {
          "indexed": false,
          "internalType": "bytes32",
          "name": "_requestID",
          "type": "bytes32"
        },
        {
          "indexed": false,
          "internalType": "string",
          "name": "_indexer",
          "type": "string"
        },
        {
          "indexed": false,
          "internalType": "string",
          "name": "_protocol",
          "type": "string"
        },
        {
          "indexed": false,
          "internalType": "string",
          "name": "_query",
          "type": "string"
        }
      ],
      "name": "QueryRequest",
      "type": "event"
    },
    {
      "anonymous": false,
      "inputs": [
        {
          "indexed": false,
          "internalType": "bytes32",
          "name": "_requestID",
          "type": "bytes32"
        },
        {
          "indexed": false,
          "internalType": "string",
          "name": "_queryResult",
          "type": "string"
        }
      ],
      "name": "QueryResultReceived",
      "type": "event"
    },
    {
      "anonymous": false,
      "inputs": [
        {
          "indexed": true,
          "internalType": "address",
          "name": "from",
          "type": "address"
        },
        {
          "indexed": true,
          "internalType": "address",
          "name": "to",
          "type": "address"
        },
        {
          "indexed": true,
          "internalType": "uint256",
          "name": "tokenId",
          "type": "uint256"
        }
      ],
      "name": "Transfer",
      "type": "event"
    },
    {
      "inputs": [
        {
          "internalType": "address",
          "name": "to",
          "type": "address"
        },
        {
          "internalType": "uint256",
          "name": "tokenId",
          "type": "uint256"
        }
      ],
      "name": "approve",
      "outputs": [],
      "stateMutability": "nonpayable",
      "type": "function"
    },
    {
      "inputs": [
        {
          "internalType": "address",
          "name": "owner",
          "type": "address"
        }
      ],
      "name": "balanceOf",
      "outputs": [
        {
          "internalType": "uint256",
          "name": "",
          "type": "uint256"
        }
      ],
      "stateMutability": "view",
      "type": "function",
      "constant": true
    },
    {
      "inputs": [
        {
          "internalType": "uint256",
          "name": "tokenId",
          "type": "uint256"
        }
      ],
      "name": "getApproved",
      "outputs": [
        {
          "internalType": "address",
          "name": "",
          "type": "address"
        }
      ],
      "stateMutability": "view",
      "type": "function",
      "constant": true
    },
    {
      "inputs": [
        {
          "internalType": "address",
          "name": "owner",
          "type": "address"
        },
        {
          "internalType": "address",
          "name": "operator",
          "type": "address"
        }
      ],
      "name": "isApprovedForAll",
      "outputs": [
        {
          "internalType": "bool",
          "name": "",
          "type": "bool"
        }
      ],
      "stateMutability": "view",
      "type": "function",
      "constant": true
    },
    {
      "inputs": [],
      "name": "name",
      "outputs": [
        {
          "internalType": "string",
          "name": "",
          "type": "string"
        }
      ],
      "stateMutability": "view",
      "type": "function",
      "constant": true
    },
    {
      "inputs": [],
      "name": "owner",
      "outputs": [
        {
          "internalType": "address",
          "name": "",
          "type": "address"
        }
      ],
      "stateMutability": "view",
      "type": "function",
      "constant": true
    },
    {
      "inputs": [
        {
          "internalType": "uint256",
          "name": "tokenId",
          "type": "uint256"
        }
      ],
      "name": "ownerOf",
      "outputs": [
        {
          "internalType": "address",
          "name": "",
          "type": "address"
        }
      ],
      "stateMutability": "view",
      "type": "function",
      "constant": true
    },
    {
      "inputs": [],
      "name": "renounceOwnership",
      "outputs": [],
      "stateMutability": "nonpayable",
      "type": "function"
    },
    {
      "inputs": [
        {
          "internalType": "address",
          "name": "from",
          "type": "address"
        },
        {
          "internalType": "address",
          "name": "to",
          "type": "address"
        },
        {
          "internalType": "uint256",
          "name": "tokenId",
          "type": "uint256"
        }
      ],
      "name": "safeTransferFrom",
      "outputs": [],
      "stateMutability": "nonpayable",
      "type": "function"
    },
    {
      "inputs": [
        {
          "internalType": "address",
          "name": "from",
          "type": "address"
        },
        {
          "internalType": "address",
          "name": "to",
          "type": "address"
        },
        {
          "internalType": "uint256",
          "name": "tokenId",
          "type": "uint256"
        },
        {
          "internalType": "bytes",
          "name": "_data",
          "type": "bytes"
        }
      ],
      "name": "safeTransferFrom",
      "outputs": [],
      "stateMutability": "nonpayable",
      "type": "function"
    },
    {
      "inputs": [
        {
          "internalType": "address",
          "name": "operator",
          "type": "address"
        },
        {
          "internalType": "bool",
          "name": "approved",
          "type": "bool"
        }
      ],
      "name": "setApprovalForAll",
      "outputs": [],
      "stateMutability": "nonpayable",
      "type": "function"
    },
    {
      "inputs": [
        {
          "internalType": "bytes4",
          "name": "interfaceId",
          "type": "bytes4"
        }
      ],
      "name": "supportsInterface",
      "outputs": [
        {
          "internalType": "bool",
          "name": "",
          "type": "bool"
        }
      ],
      "stateMutability": "view",
      "type": "function",
      "constant": true
    },
    {
      "inputs": [],
      "name": "symbol",
      "outputs": [
        {
          "internalType": "string",
          "name": "",
          "type": "string"
        }
      ],
      "stateMutability": "view",
      "type": "function",
      "constant": true
    },
    {
      "inputs": [
        {
          "internalType": "uint256",
          "name": "index",
          "type": "uint256"
        }
      ],
      "name": "tokenByIndex",
      "outputs": [
        {
          "internalType": "uint256",
          "name": "",
          "type": "uint256"
        }
      ],
      "stateMutability": "view",
      "type": "function",
      "constant": true
    },
    {
      "inputs": [
        {
          "internalType": "address",
          "name": "owner",
          "type": "address"
        },
        {
          "internalType": "uint256",
          "name": "index",
          "type": "uint256"
        }
      ],
      "name": "tokenOfOwnerByIndex",
      "outputs": [
        {
          "internalType": "uint256",
          "name": "",
          "type": "uint256"
        }
      ],
      "stateMutability": "view",
      "type": "function",
      "constant": true
    },
    {
      "inputs": [],
      "name": "totalSupply",
      "outputs": [
        {
          "internalType": "uint256",
          "name": "",
          "type": "uint256"
        }
      ],
      "stateMutability": "view",
      "type": "function",
      "constant": true
    },
    {
      "inputs": [
        {
          "internalType": "address",
          "name": "from",
          "type": "address"
        },
        {
          "internalType": "address",
          "name": "to",
          "type": "address"
        },
        {
          "internalType": "uint256",
          "name": "tokenId",
          "type": "uint256"
        }
      ],
      "name": "transferFrom",
      "outputs": [],
      "stateMutability": "nonpayable",
      "type": "function"
    },
    {
      "inputs": [
        {
          "internalType": "address",
          "name": "newOwner",
          "type": "address"
        }
      ],
      "name": "transferOwnership",
      "outputs": [],
      "stateMutability": "nonpayable",
      "type": "function"
    },
    {
      "inputs": [
        {
          "internalType": "uint256",
          "name": "_badgeDefinitionId",
          "type": "uint256"
        }
      ],
      "name": "requestBadgeTokenMinting",
      "outputs": [],
      "stateMutability": "nonpayable",
      "type": "function"
    },
    {
      "inputs": [
        {
          "internalType": "bytes32",
          "name": "_requestID",
          "type": "bytes32"
        },
        {
          "internalType": "string",
          "name": "_queryResult",
          "type": "string"
        }
      ],
      "name": "updateBadgeTokenMinting",
      "outputs": [],
      "stateMutability": "nonpayable",
      "type": "function"
    },
    {
      "inputs": [
        {
          "internalType": "uint256",
          "name": "_badgeDefinitionId",
          "type": "uint256"
        }
      ],
      "name": "mintBadgeToken",
      "outputs": [
        {
          "internalType": "uint256",
          "name": "_badgeTokenId",
          "type": "uint256"
        }
      ],
      "stateMutability": "nonpayable",
      "type": "function"
    },
    {
      "inputs": [
        {
          "internalType": "address",
          "name": "_owner",
          "type": "address"
        },
        {
          "internalType": "uint256",
          "name": "_badgeDefinitionId",
          "type": "uint256"
        }
      ],
      "name": "doesOwnBadgeFromGivenDefinition",
      "outputs": [
        {
          "internalType": "bool",
          "name": "_evaluationResult",
          "type": "bool"
        }
      ],
      "stateMutability": "view",
      "type": "function",
      "constant": true
    },
    {
      "inputs": [
        {
          "internalType": "uint256",
          "name": "tokenId",
          "type": "uint256"
        }
      ],
      "name": "tokenURI",
      "outputs": [
        {
          "internalType": "string",
          "name": "",
          "type": "string"
        }
      ],
      "stateMutability": "view",
      "type": "function",
      "constant": true
    }
  ],
  "bytecode": "0x60806040526040518060400160405280600381526020017f42544f0000000000000000000000000000000000000000000000000000000000815250600e90805190602001906200005192919062000355565b503480156200005f57600080fd5b5060405162006ca338038062006ca383398181016040528101906200008591906200042a565b6040518060400160405280600a81526020017f4261646765546f6b656e00000000000000000000000000000000000000000000815250600e8054620000ca906200048a565b80601f0160208091040260200160405190810160405280929190818152602001828054620000f8906200048a565b8015620001495780601f106200011d5761010080835404028352916020019162000149565b820191906000526020600020905b8154815290600101906020018083116200012b57829003601f168201915b5050505050818181600090805190602001906200016892919062000355565b5080600190805190602001906200018192919062000355565b5050506000620001966200033160201b60201c565b905080600a60006101000a81548173ffffffffffffffffffffffffffffffffffffffff021916908373ffffffffffffffffffffffffffffffffffffffff1602179055508073ffffffffffffffffffffffffffffffffffffffff16600073ffffffffffffffffffffffffffffffffffffffff167f8be0079c531659141344cd1fd0a4f28419497f9722a3daafe3b4186f6b6457e060405160405180910390a3506200027b6040518060400160405280600781526020017f697066733a2f2f000000000000000000000000000000000000000000000000008152506200033960201b60201c565b505080601360006101000a81548173ffffffffffffffffffffffffffffffffffffffff021916908373ffffffffffffffffffffffffffffffffffffffff160217905550604051620002cc90620003e6565b604051809103906000f080158015620002e9573d6000803e3d6000fd5b50601460006101000a81548173ffffffffffffffffffffffffffffffffffffffff021916908373ffffffffffffffffffffffffffffffffffffffff1602179055505062000509565b600033905090565b80600b90805190602001906200035192919062000355565b5050565b82805462000363906200048a565b90600052602060002090601f016020900481019282620003875760008555620003d3565b82601f10620003a257805160ff1916838001178555620003d3565b82800160010185558215620003d3579182015b82811115620003d2578251825591602001919060010190620003b5565b5b509050620003e29190620003f4565b5090565b610fcb8062005cd883390190565b5b808211156200040f576000816000905550600101620003f5565b5090565b6000815190506200042481620004ef565b92915050565b6000602082840312156200043d57600080fd5b60006200044d8482850162000413565b91505092915050565b600062000463826200046a565b9050919050565b600073ffffffffffffffffffffffffffffffffffffffff82169050919050565b60006002820490506001821680620004a357607f821691505b60208210811415620004ba57620004b9620004c0565b5b50919050565b7f4e487b7100000000000000000000000000000000000000000000000000000000600052602260045260246000fd5b620004fa8162000456565b81146200050657600080fd5b50565b6157bf80620005196000396000f3fe608060405234801561001057600080fd5b506004361061014d5760003560e01c80636352211e116100c3578063a22cb4651161007c578063a22cb465146103b0578063b88d4fde146103cc578063c87b56dd146103e8578063e7f4993714610418578063e985e9c514610448578063f2fde38b146104785761014d565b80636352211e146102ee57806370a082311461031e578063715018a61461034e5780638da5cb5b1461035857806395d89b41146103765780639e644728146103945761014d565b806318160ddd1161011557806318160ddd1461021c57806323b872dd1461023a5780632f745c591461025657806333358a941461028657806342842e0e146102a25780634f6ccce7146102be5761014d565b806301ffc9a71461015257806306fdde0314610182578063081812fc146101a0578063095ea7b3146101d05780630a63ea26146101ec575b600080fd5b61016c60048036038101906101679190614139565b610494565b6040516101799190614fba565b60405180910390f35b61018a61050e565b604051610197919061505f565b60405180910390f35b6101ba60048036038101906101b591906141cc565b6105a0565b6040516101c79190614e76565b60405180910390f35b6101ea60048036038101906101e59190614057565b610625565b005b610206600480360381019061020191906141cc565b61073d565b60405161021391906152c1565b60405180910390f35b610224610d96565b60405161023191906152c1565b60405180910390f35b610254600480360381019061024f9190613f51565b610da3565b005b610270600480360381019061026b9190614057565b610e03565b60405161027d91906152c1565b60405180910390f35b6102a0600480360381019061029b91906140e5565b610ea8565b005b6102bc60048036038101906102b79190613f51565b611177565b005b6102d860048036038101906102d391906141cc565b611197565b6040516102e591906152c1565b60405180910390f35b610308600480360381019061030391906141cc565b61122e565b6040516103159190614e76565b60405180910390f35b61033860048036038101906103339190613eec565b6112e0565b60405161034591906152c1565b60405180910390f35b610356611398565b005b6103606114d5565b60405161036d9190614e76565b60405180910390f35b61037e6114ff565b60405161038b919061505f565b60405180910390f35b6103ae60048036038101906103a991906141cc565b611591565b005b6103ca60048036038101906103c5919061401b565b611cc4565b005b6103e660048036038101906103e19190613fa0565b611e45565b005b61040260048036038101906103fd91906141cc565b611ea7565b60405161040f919061505f565b60405180910390f35b610432600480360381019061042d9190614057565b61202a565b60405161043f9190614fba565b60405180910390f35b610462600480360381019061045d9190613f15565b612094565b60405161046f9190614fba565b60405180910390f35b610492600480360381019061048d9190613eec565b612128565b005b60007f780e9d63000000000000000000000000000000000000000000000000000000007bffffffffffffffffffffffffffffffffffffffffffffffffffffffff1916827bffffffffffffffffffffffffffffffffffffffffffffffffffffffff191614806105075750610506826122d4565b5b9050919050565b60606000805461051d906155b8565b80601f0160208091040260200160405190810160405280929190818152602001828054610549906155b8565b80156105965780601f1061056b57610100808354040283529160200191610596565b820191906000526020600020905b81548152906001019060200180831161057957829003601f168201915b5050505050905090565b60006105ab826123b6565b6105ea576040517f08c379a00000000000000000000000000000000000000000000000000000000081526004016105e1906151e1565b60405180910390fd5b6004600083815260200190815260200160002060009054906101000a900473ffffffffffffffffffffffffffffffffffffffff169050919050565b60006106308261122e565b90508073ffffffffffffffffffffffffffffffffffffffff168373ffffffffffffffffffffffffffffffffffffffff1614156106a1576040517f08c379a000000000000000000000000000000000000000000000000000000000815260040161069890615261565b60405180910390fd5b8073ffffffffffffffffffffffffffffffffffffffff166106c0612422565b73ffffffffffffffffffffffffffffffffffffffff1614806106ef57506106ee816106e9612422565b612094565b5b61072e576040517f08c379a000000000000000000000000000000000000000000000000000000000815260040161072590615161565b60405180910390fd5b610738838361242a565b505050565b6000816000600d600061074e612422565b73ffffffffffffffffffffffffffffffffffffffff1673ffffffffffffffffffffffffffffffffffffffff16815260200190815260200160002060008381526020019081526020016000205414600e6040516020016107ad9190614d84565b604051602081830303815290604052906107fd576040517f08c379a00000000000000000000000000000000000000000000000000000000081526004016107f4919061505f565b60405180910390fd5b50826000801b6011600061080f612422565b73ffffffffffffffffffffffffffffffffffffffff1673ffffffffffffffffffffffffffffffffffffffff1681526020019081526020016000206000838152602001908152602001600020541415600e60405160200161086f9190614da6565b604051602081830303815290604052906108bf576040517f08c379a00000000000000000000000000000000000000000000000000000000081526004016108b6919061505f565b60405180910390fd5b506000601160006108ce612422565b73ffffffffffffffffffffffffffffffffffffffff1673ffffffffffffffffffffffffffffffffffffffff168152602001908152602001600020600086815260200190815260200160002054905060006010600083815260200190815260200160002090508060000160009054906101000a900473ffffffffffffffffffffffffffffffffffffffff1673ffffffffffffffffffffffffffffffffffffffff16610976612422565b73ffffffffffffffffffffffffffffffffffffffff1614600e60405160200161099f9190614dc8565b604051602081830303815290604052906109ef576040517f08c379a00000000000000000000000000000000000000000000000000000000081526004016109e6919061505f565b60405180910390fd5b506109f8613951565b610a0282826124e3565b600e604051602001610a149190614d62565b60405160208183030381529060405290610a64576040517f08c379a0000000000000000000000000000000000000000000000000000000008152600401610a5b919061505f565b60405180910390fd5b50600c6040518060600160405280898152602001610a80612422565b73ffffffffffffffffffffffffffffffffffffffff1681526020018381525090806001815401808255809150506001900390600052602060002090600702016000909190919091506000820151816000015560208201518160010160006101000a81548173ffffffffffffffffffffffffffffffffffffffff021916908373ffffffffffffffffffffffffffffffffffffffff160217905550604082015181600201906005610b30929190613978565b5050506000600c80549050905080600d6000610b4a612422565b73ffffffffffffffffffffffffffffffffffffffff1673ffffffffffffffffffffffffffffffffffffffff16815260200190815260200160002060008a815260200190815260200160002081905550610baa610ba4612422565b8261275f565b60005b8360020154811015610c9f576000846003016000838152602001908152602001600020549050601260008281526020019081526020016000206000905584600401600082815260200190815260200160002060006101000a81549060ff02191690558460050160008281526020019081526020016000206000610c3091906139cb565b8460060160008281526020019081526020016000206000610c5191906139cb565b8460070160008281526020019081526020016000206000610c7291906139cb565b84600301600083815260200190815260200160002060009055508080610c97906155ea565b915050610bad565b5060116000610cac612422565b73ffffffffffffffffffffffffffffffffffffffff1673ffffffffffffffffffffffffffffffffffffffff16815260200190815260200160002060008981526020019081526020016000206000905560106000858152602001908152602001600020600080820160006101000a81549073ffffffffffffffffffffffffffffffffffffffff02191690556001820160009055600282016000905550507fc35003c6a276561656b3fa38ba6188210f566b6b608800d3bbbbf6b7660db4bf81610d72612422565b604051610d809291906152dc565b60405180910390a1809650505050505050919050565b6000600880549050905090565b610db4610dae612422565b8261277d565b610df3576040517f08c379a0000000000000000000000000000000000000000000000000000000008152600401610dea90615281565b60405180910390fd5b610dfe83838361285b565b505050565b6000610e0e836112e0565b8210610e4f576040517f08c379a0000000000000000000000000000000000000000000000000000000008152600401610e4690615081565b60405180910390fd5b600660008473ffffffffffffffffffffffffffffffffffffffff1673ffffffffffffffffffffffffffffffffffffffff168152602001908152602001600020600083815260200190815260200160002054905092915050565b6000601260008481526020019081526020016000205490506000801b811415600e8483604051602001610edd93929190614dea565b60405160208183030381529060405290610f2d576040517f08c379a0000000000000000000000000000000000000000000000000000000008152600401610f24919061505f565b60405180910390fd5b506000601060008381526020019081526020016000209050600081600401600086815260200190815260200160002060006101000a81548160ff021916908315150217905550828160050160008681526020019081526020016000209080519060200190610f9c929190613a0b565b50601460009054906101000a900473ffffffffffffffffffffffffffffffffffffffff1673ffffffffffffffffffffffffffffffffffffffff1663766700328260000160009054906101000a900473ffffffffffffffffffffffffffffffffffffffff168487876040518563ffffffff1660e01b81526004016110229493929190614edd565b600060405180830381600087803b15801561103c57600080fd5b505af1158015611050573d6000803e3d6000fd5b505050507f4afbfe885d2d719250ec837ded71aaf82e8049cacd67243ec226ae9fa243b7498484604051611085929190614fd5565b60405180910390a16000805b8260020154811080156110a8575060001515821515145b1561110057600083600301600083815260200190815260200160002054905083600401600082815260200190815260200160002060009054906101000a900460ff1692505080806110f8906155ea565b915050611091565b50600015158115151415611170577f525abb79d22b1de57c8f4bcc88ecde5bc43176c4df9b1c8f612cbf6f75daca888260000160009054906101000a900473ffffffffffffffffffffffffffffffffffffffff168360010154604051611167929190614f91565b60405180910390a15b5050505050565b61119283838360405180602001604052806000815250611e45565b505050565b60006111a1610d96565b82106111e2576040517f08c379a00000000000000000000000000000000000000000000000000000000081526004016111d9906152a1565b60405180910390fd5b6008828154811061121c577f4e487b7100000000000000000000000000000000000000000000000000000000600052603260045260246000fd5b90600052602060002001549050919050565b6000806002600084815260200190815260200160002060009054906101000a900473ffffffffffffffffffffffffffffffffffffffff169050600073ffffffffffffffffffffffffffffffffffffffff168173ffffffffffffffffffffffffffffffffffffffff1614156112d7576040517f08c379a00000000000000000000000000000000000000000000000000000000081526004016112ce906151a1565b60405180910390fd5b80915050919050565b60008073ffffffffffffffffffffffffffffffffffffffff168273ffffffffffffffffffffffffffffffffffffffff161415611351576040517f08c379a000000000000000000000000000000000000000000000000000000000815260040161134890615181565b60405180910390fd5b600360008373ffffffffffffffffffffffffffffffffffffffff1673ffffffffffffffffffffffffffffffffffffffff168152602001908152602001600020549050919050565b6113a0612422565b73ffffffffffffffffffffffffffffffffffffffff166113be6114d5565b73ffffffffffffffffffffffffffffffffffffffff1614611414576040517f08c379a000000000000000000000000000000000000000000000000000000000815260040161140b90615201565b60405180910390fd5b600073ffffffffffffffffffffffffffffffffffffffff16600a60009054906101000a900473ffffffffffffffffffffffffffffffffffffffff1673ffffffffffffffffffffffffffffffffffffffff167f8be0079c531659141344cd1fd0a4f28419497f9722a3daafe3b4186f6b6457e060405160405180910390a36000600a60006101000a81548173ffffffffffffffffffffffffffffffffffffffff021916908373ffffffffffffffffffffffffffffffffffffffff160217905550565b6000600a60009054906101000a900473ffffffffffffffffffffffffffffffffffffffff16905090565b60606001805461150e906155b8565b80601f016020809104026020016040519081016040528092919081815260200182805461153a906155b8565b80156115875780601f1061155c57610100808354040283529160200191611587565b820191906000526020600020905b81548152906001019060200180831161156a57829003601f168201915b5050505050905090565b806000600d60006115a0612422565b73ffffffffffffffffffffffffffffffffffffffff1673ffffffffffffffffffffffffffffffffffffffff16815260200190815260200160002060008381526020019081526020016000205414600e6040516020016115ff9190614d84565b6040516020818303038152906040529061164f576040517f08c379a0000000000000000000000000000000000000000000000000000000008152600401611646919061505f565b60405180910390fd5b50816000801b60116000611661612422565b73ffffffffffffffffffffffffffffffffffffffff1673ffffffffffffffffffffffffffffffffffffffff16815260200190815260200160002060008381526020019081526020016000205414600e6040516020016116c09190614d40565b60405160208183030381529060405290611710576040517f08c379a0000000000000000000000000000000000000000000000000000000008152600401611707919061505f565b60405180910390fd5b5061171b600f612a43565b600042611726612422565b611730600f612a59565b60405160200161174293929190614e39565b6040516020818303038152906040528051906020012090508060116000611767612422565b73ffffffffffffffffffffffffffffffffffffffff1673ffffffffffffffffffffffffffffffffffffffff16815260200190815260200160002060008681526020019081526020016000208190555060006010600083815260200190815260200160002090506117d5612422565b8160000160006101000a81548173ffffffffffffffffffffffffffffffffffffffff021916908373ffffffffffffffffffffffffffffffffffffffff16021790555061181f613a91565b6000601360009054906101000a900473ffffffffffffffffffffffffffffffffffffffff1673ffffffffffffffffffffffffffffffffffffffff16638de54b44886040518263ffffffff1660e01b815260040161187c91906152c1565b60006040518083038186803b15801561189457600080fd5b505afa1580156118a8573d6000803e3d6000fd5b505050506040513d6000823e3d601f19601f820116820180604052508101906118d191906141f5565b809350819250505080836002018190555060005b81811015611cba576000601460009054906101000a900473ffffffffffffffffffffffffffffffffffffffff1673ffffffffffffffffffffffffffffffffffffffff16631c5f6d5d611935612422565b8887866005811061196f577f4e487b7100000000000000000000000000000000000000000000000000000000600052603260045260246000fd5b6020020151604001518887600581106119b1577f4e487b7100000000000000000000000000000000000000000000000000000000600052603260045260246000fd5b6020020151606001518988600581106119f3577f4e487b7100000000000000000000000000000000000000000000000000000000600052603260045260246000fd5b6020020151608001516040518663ffffffff1660e01b8152600401611a1c959493929190614f29565b602060405180830381600087803b158015611a3657600080fd5b505af1158015611a4a573d6000803e3d6000fd5b505050506040513d601f19601f82011682018060405250810190611a6e91906140bc565b90507f2727abc3b786a7935bb84281cf4fbada3e11d478c4f726376269e4070eda224c81858460058110611acb577f4e487b7100000000000000000000000000000000000000000000000000000000600052603260045260246000fd5b602002015160400151868560058110611b0d577f4e487b7100000000000000000000000000000000000000000000000000000000600052603260045260246000fd5b602002015160600151878660058110611b4f577f4e487b7100000000000000000000000000000000000000000000000000000000600052603260045260246000fd5b602002015160800151604051611b689493929190615005565b60405180910390a18560126000838152602001908152602001600020819055508085600301600084815260200190815260200160002081905550600185600401600083815260200190815260200160002060006101000a81548160ff021916908315150217905550838260058110611c09577f4e487b7100000000000000000000000000000000000000000000000000000000600052603260045260246000fd5b602002015160a001518560060160008381526020019081526020016000209080519060200190611c3a929190613a0b565b50838260058110611c74577f4e487b7100000000000000000000000000000000000000000000000000000000600052603260045260246000fd5b602002015160c001518560070160008381526020019081526020016000209080519060200190611ca5929190613a0b565b50508080611cb2906155ea565b9150506118e5565b5050505050505050565b611ccc612422565b73ffffffffffffffffffffffffffffffffffffffff168273ffffffffffffffffffffffffffffffffffffffff161415611d3a576040517f08c379a0000000000000000000000000000000000000000000000000000000008152600401611d3190615121565b60405180910390fd5b8060056000611d47612422565b73ffffffffffffffffffffffffffffffffffffffff1673ffffffffffffffffffffffffffffffffffffffff16815260200190815260200160002060008473ffffffffffffffffffffffffffffffffffffffff1673ffffffffffffffffffffffffffffffffffffffff16815260200190815260200160002060006101000a81548160ff0219169083151502179055508173ffffffffffffffffffffffffffffffffffffffff16611df4612422565b73ffffffffffffffffffffffffffffffffffffffff167f17307eab39ab6107e8899845ad3d59bd9653f200f220920489ca2b5937696c3183604051611e399190614fba565b60405180910390a35050565b611e56611e50612422565b8361277d565b611e95576040517f08c379a0000000000000000000000000000000000000000000000000000000008152600401611e8c90615281565b60405180910390fd5b611ea184848484612a67565b50505050565b6060611eb2826123b6565b611ef1576040517f08c379a0000000000000000000000000000000000000000000000000000000008152600401611ee890615241565b60405180910390fd5b6000600183611f0091906154c4565b90506000601360009054906101000a900473ffffffffffffffffffffffffffffffffffffffff1673ffffffffffffffffffffffffffffffffffffffff1663c87b56dd600c8481548110611f7c577f4e487b7100000000000000000000000000000000000000000000000000000000600052603260045260246000fd5b9060005260206000209060070201600001546040518263ffffffff1660e01b8152600401611faa91906152c1565b60006040518083038186803b158015611fc257600080fd5b505afa158015611fd6573d6000803e3d6000fd5b505050506040513d6000823e3d601f19601f82011682018060405250810190611fff919061418b565b9050600081511161201f5760405180602001604052806000815250612021565b805b92505050919050565b6000600190506000600d60008573ffffffffffffffffffffffffffffffffffffffff1673ffffffffffffffffffffffffffffffffffffffff168152602001908152602001600020600084815260200190815260200160002054141561208e57600090505b92915050565b6000600560008473ffffffffffffffffffffffffffffffffffffffff1673ffffffffffffffffffffffffffffffffffffffff16815260200190815260200160002060008373ffffffffffffffffffffffffffffffffffffffff1673ffffffffffffffffffffffffffffffffffffffff16815260200190815260200160002060009054906101000a900460ff16905092915050565b612130612422565b73ffffffffffffffffffffffffffffffffffffffff1661214e6114d5565b73ffffffffffffffffffffffffffffffffffffffff16146121a4576040517f08c379a000000000000000000000000000000000000000000000000000000000815260040161219b90615201565b60405180910390fd5b600073ffffffffffffffffffffffffffffffffffffffff168173ffffffffffffffffffffffffffffffffffffffff161415612214576040517f08c379a000000000000000000000000000000000000000000000000000000000815260040161220b906150c1565b60405180910390fd5b8073ffffffffffffffffffffffffffffffffffffffff16600a60009054906101000a900473ffffffffffffffffffffffffffffffffffffffff1673ffffffffffffffffffffffffffffffffffffffff167f8be0079c531659141344cd1fd0a4f28419497f9722a3daafe3b4186f6b6457e060405160405180910390a380600a60006101000a81548173ffffffffffffffffffffffffffffffffffffffff021916908373ffffffffffffffffffffffffffffffffffffffff16021790555050565b60007f80ac58cd000000000000000000000000000000000000000000000000000000007bffffffffffffffffffffffffffffffffffffffffffffffffffffffff1916827bffffffffffffffffffffffffffffffffffffffffffffffffffffffff1916148061239f57507f5b5e139f000000000000000000000000000000000000000000000000000000007bffffffffffffffffffffffffffffffffffffffffffffffffffffffff1916827bffffffffffffffffffffffffffffffffffffffffffffffffffffffff1916145b806123af57506123ae82612ac3565b5b9050919050565b60008073ffffffffffffffffffffffffffffffffffffffff166002600084815260200190815260200160002060009054906101000a900473ffffffffffffffffffffffffffffffffffffffff1673ffffffffffffffffffffffffffffffffffffffff1614159050919050565b600033905090565b816004600083815260200190815260200160002060006101000a81548173ffffffffffffffffffffffffffffffffffffffff021916908373ffffffffffffffffffffffffffffffffffffffff160217905550808273ffffffffffffffffffffffffffffffffffffffff1661249d8361122e565b73ffffffffffffffffffffffffffffffffffffffff167f8c5be1e5ebec7d5bd14f71427d1e84f3dd0314c0f7b2291e5b200ac8c7c3b92560405160405180910390a45050565b60006001905060005b836002015481108015612503575060011515821515145b156127585760008460030160008381526020019081526020016000205490506127428560050160008381526020019081526020016000208054612545906155b8565b80601f0160208091040260200160405190810160405280929190818152602001828054612571906155b8565b80156125be5780601f10612593576101008083540402835291602001916125be565b820191906000526020600020905b8154815290600101906020018083116125a157829003601f168201915b505050505086600601600084815260200190815260200160002080546125e3906155b8565b80601f016020809104026020016040519081016040528092919081815260200182805461260f906155b8565b801561265c5780601f106126315761010080835404028352916020019161265c565b820191906000526020600020905b81548152906001019060200180831161263f57829003601f168201915b50505050508760070160008581526020019081526020016000208054612681906155b8565b80601f01602080910402602001604051908101604052809291908181526020018280546126ad906155b8565b80156126fa5780601f106126cf576101008083540402835291602001916126fa565b820191906000526020600020905b8154815290600101906020018083116126dd57829003601f168201915b5050505050878660058110612738577f4e487b7100000000000000000000000000000000000000000000000000000000600052603260045260246000fd5b6020020151612b2d565b9250508080612750906155ea565b9150506124ec565b5092915050565b612779828260405180602001604052806000815250612dd1565b5050565b6000612788826123b6565b6127c7576040517f08c379a00000000000000000000000000000000000000000000000000000000081526004016127be90615141565b60405180910390fd5b60006127d28361122e565b90508073ffffffffffffffffffffffffffffffffffffffff168473ffffffffffffffffffffffffffffffffffffffff16148061284157508373ffffffffffffffffffffffffffffffffffffffff16612829846105a0565b73ffffffffffffffffffffffffffffffffffffffff16145b8061285257506128518185612094565b5b91505092915050565b600060018261286a91906154c4565b9050601360009054906101000a900473ffffffffffffffffffffffffffffffffffffffff1673ffffffffffffffffffffffffffffffffffffffff1663036f2536600c83815481106128e4577f4e487b7100000000000000000000000000000000000000000000000000000000600052603260045260246000fd5b9060005260206000209060070201600001546040518263ffffffff1660e01b815260040161291291906152c1565b60206040518083038186803b15801561292a57600080fd5b505afa15801561293e573d6000803e3d6000fd5b505050506040513d601f19601f820116820180604052508101906129629190614093565b600e600c838154811061299e577f4e487b7100000000000000000000000000000000000000000000000000000000600052603260045260246000fd5b906000526020600020906007020160010160009054906101000a900473ffffffffffffffffffffffffffffffffffffffff166040516020016129e1929190614d0d565b60405160208183030381529060405290612a31576040517f08c379a0000000000000000000000000000000000000000000000000000000008152600401612a28919061505f565b60405180910390fd5b50612a3d848484612e2c565b50505050565b6001816000016000828254019250508190555050565b600081600001549050919050565b612a7284848461285b565b612a7e84848484613088565b612abd576040517f08c379a0000000000000000000000000000000000000000000000000000000008152600401612ab4906150a1565b60405180910390fd5b50505050565b60007f01ffc9a7000000000000000000000000000000000000000000000000000000007bffffffffffffffffffffffffffffffffffffffffffffffffffffffff1916827bffffffffffffffffffffffffffffffffffffffffffffffffffffffff1916149050919050565b600080848051906020012090506040518060400160405280600181526020017f3c0000000000000000000000000000000000000000000000000000000000000081525080519060200120811415612b9857612b878461321f565b612b908761321f565b109150612dc8565b6040518060400160405280600281526020017f3c3d00000000000000000000000000000000000000000000000000000000000081525080519060200120811415612bf757612be58461321f565b612bee8761321f565b11159150612dc7565b6040518060400160405280600181526020017f3e0000000000000000000000000000000000000000000000000000000000000081525080519060200120811415612c5557612c448461321f565b612c4d8761321f565b119150612dc6565b6040518060400160405280600281526020017f3e3d00000000000000000000000000000000000000000000000000000000000081525080519060200120811415612cb457612ca28461321f565b612cab8761321f565b10159150612dc5565b6040518060400160405280600281526020017f3d3d00000000000000000000000000000000000000000000000000000000000081525080519060200120811415612d1257612d018461321f565b612d0a8761321f565b149150612dc4565b6040518060400160405280600281526020017f213d00000000000000000000000000000000000000000000000000000000000081525080519060200120811415612d7157612d5f8461321f565b612d688761321f565b14159150612dc3565b6040518060400160405280600781526020017f7370656369616c0000000000000000000000000000000000000000000000000081525080519060200120811415612dc15760019150859250612dc2565b5b5b5b5b5b5b5b50949350505050565b612ddb83836132df565b612de86000848484613088565b612e27576040517f08c379a0000000000000000000000000000000000000000000000000000000008152600401612e1e906150a1565b60405180910390fd5b505050565b8273ffffffffffffffffffffffffffffffffffffffff16612e4c8261122e565b73ffffffffffffffffffffffffffffffffffffffff1614612ea2576040517f08c379a0000000000000000000000000000000000000000000000000000000008152600401612e9990615221565b60405180910390fd5b600073ffffffffffffffffffffffffffffffffffffffff168273ffffffffffffffffffffffffffffffffffffffff161415612f12576040517f08c379a0000000000000000000000000000000000000000000000000000000008152600401612f0990615101565b60405180910390fd5b612f1d8383836134ad565b612f2860008261242a565b6001600360008573ffffffffffffffffffffffffffffffffffffffff1673ffffffffffffffffffffffffffffffffffffffff1681526020019081526020016000206000828254612f7891906154c4565b925050819055506001600360008473ffffffffffffffffffffffffffffffffffffffff1673ffffffffffffffffffffffffffffffffffffffff1681526020019081526020016000206000828254612fcf9190615414565b92505081905550816002600083815260200190815260200160002060006101000a81548173ffffffffffffffffffffffffffffffffffffffff021916908373ffffffffffffffffffffffffffffffffffffffff160217905550808273ffffffffffffffffffffffffffffffffffffffff168473ffffffffffffffffffffffffffffffffffffffff167fddf252ad1be2c89b69c2b068fc378daa952ba7f163c4a11628f55a4df523b3ef60405160405180910390a4505050565b60006130a98473ffffffffffffffffffffffffffffffffffffffff166135c1565b15613212578373ffffffffffffffffffffffffffffffffffffffff1663150b7a026130d2612422565b8786866040518563ffffffff1660e01b81526004016130f49493929190614e91565b602060405180830381600087803b15801561310e57600080fd5b505af192505050801561313f57506040513d601f19601f8201168201806040525081019061313c9190614162565b60015b6131c2573d806000811461316f576040519150601f19603f3d011682016040523d82523d6000602084013e613174565b606091505b506000815114156131ba576040517f08c379a00000000000000000000000000000000000000000000000000000000081526004016131b1906150a1565b60405180910390fd5b805181602001fd5b63150b7a0260e01b7bffffffffffffffffffffffffffffffffffffffffffffffffffffffff1916817bffffffffffffffffffffffffffffffffffffffffffffffffffffffff191614915050613217565b600190505b949350505050565b6000808290506000809250600090505b81518110156132d8576000828281518110613273577f4e487b7100000000000000000000000000000000000000000000000000000000600052603260045260246000fd5b602001015160f81c60f81b60f81c60ff16905060308110158015613298575060398111155b156132c4576030816132aa91906154c4565b600a856132b7919061546a565b6132c19190615414565b93505b5080806132d0906155ea565b91505061322f565b5050919050565b600073ffffffffffffffffffffffffffffffffffffffff168273ffffffffffffffffffffffffffffffffffffffff16141561334f576040517f08c379a0000000000000000000000000000000000000000000000000000000008152600401613346906151c1565b60405180910390fd5b613358816123b6565b15613398576040517f08c379a000000000000000000000000000000000000000000000000000000000815260040161338f906150e1565b60405180910390fd5b6133a4600083836134ad565b6001600360008473ffffffffffffffffffffffffffffffffffffffff1673ffffffffffffffffffffffffffffffffffffffff16815260200190815260200160002060008282546133f49190615414565b92505081905550816002600083815260200190815260200160002060006101000a81548173ffffffffffffffffffffffffffffffffffffffff021916908373ffffffffffffffffffffffffffffffffffffffff160217905550808273ffffffffffffffffffffffffffffffffffffffff16600073ffffffffffffffffffffffffffffffffffffffff167fddf252ad1be2c89b69c2b068fc378daa952ba7f163c4a11628f55a4df523b3ef60405160405180910390a45050565b6134b88383836135d4565b600073ffffffffffffffffffffffffffffffffffffffff168373ffffffffffffffffffffffffffffffffffffffff1614156134fb576134f6816135d9565b61353a565b8173ffffffffffffffffffffffffffffffffffffffff168373ffffffffffffffffffffffffffffffffffffffff1614613539576135388382613622565b5b5b600073ffffffffffffffffffffffffffffffffffffffff168273ffffffffffffffffffffffffffffffffffffffff16141561357d576135788161378f565b6135bc565b8273ffffffffffffffffffffffffffffffffffffffff168273ffffffffffffffffffffffffffffffffffffffff16146135bb576135ba82826138d2565b5b5b505050565b600080823b905060008111915050919050565b505050565b6008805490506009600083815260200190815260200160002081905550600881908060018154018082558091505060019003906000526020600020016000909190919091505550565b6000600161362f846112e0565b61363991906154c4565b905060006007600084815260200190815260200160002054905081811461371e576000600660008673ffffffffffffffffffffffffffffffffffffffff1673ffffffffffffffffffffffffffffffffffffffff168152602001908152602001600020600084815260200190815260200160002054905080600660008773ffffffffffffffffffffffffffffffffffffffff1673ffffffffffffffffffffffffffffffffffffffff168152602001908152602001600020600084815260200190815260200160002081905550816007600083815260200190815260200160002081905550505b6007600084815260200190815260200160002060009055600660008573ffffffffffffffffffffffffffffffffffffffff1673ffffffffffffffffffffffffffffffffffffffff16815260200190815260200160002060008381526020019081526020016000206000905550505050565b600060016008805490506137a391906154c4565b90506000600960008481526020019081526020016000205490506000600883815481106137f9577f4e487b7100000000000000000000000000000000000000000000000000000000600052603260045260246000fd5b906000526020600020015490508060088381548110613841577f4e487b7100000000000000000000000000000000000000000000000000000000600052603260045260246000fd5b9060005260206000200181905550816009600083815260200190815260200160002081905550600960008581526020019081526020016000206000905560088054806138b6577f4e487b7100000000000000000000000000000000000000000000000000000000600052603160045260246000fd5b6001900381819060005260206000200160009055905550505050565b60006138dd836112e0565b905081600660008573ffffffffffffffffffffffffffffffffffffffff1673ffffffffffffffffffffffffffffffffffffffff168152602001908152602001600020600083815260200190815260200160002081905550806007600084815260200190815260200160002081905550505050565b6040518060a001604052806005905b60608152602001906001900390816139605790505090565b82600581019282156139ba579160200282015b828111156139b95782518290805190602001906139a9929190613a0b565b509160200191906001019061398b565b5b5090506139c79190613abe565b5090565b5080546139d7906155b8565b6000825580601f106139e95750613a08565b601f016020900490600052602060002090810190613a079190613ae2565b5b50565b828054613a17906155b8565b90600052602060002090601f016020900481019282613a395760008555613a80565b82601f10613a5257805160ff1916838001178555613a80565b82800160010185558215613a80579182015b82811115613a7f578251825591602001919060010190613a64565b5b509050613a8d9190613ae2565b5090565b6040518060a001604052806005905b613aa8613aff565b815260200190600190039081613aa05790505090565b5b80821115613ade5760008181613ad591906139cb565b50600101613abf565b5090565b5b80821115613afb576000816000905550600101613ae3565b5090565b6040518060e00160405280600081526020016060815260200160608152602001606081526020016060815260200160608152602001606081525090565b6000613b4f613b4a84615336565b615305565b9050808260005b85811015613b865781518501613b6c8882613d82565b845260208401935060208301925050600181019050613b56565b5050509392505050565b6000613ba3613b9e8461535c565b615305565b905082815260208101848484011115613bbb57600080fd5b613bc6848285615576565b509392505050565b6000613be1613bdc8461538c565b615305565b905082815260208101848484011115613bf957600080fd5b613c04848285615576565b509392505050565b6000613c1f613c1a8461538c565b615305565b905082815260208101848484011115613c3757600080fd5b613c42848285615585565b509392505050565b600081359050613c5981615716565b92915050565b600082601f830112613c7057600080fd5b6005613c7d848285613b3c565b91505092915050565b600081359050613c958161572d565b92915050565b600081519050613caa8161572d565b92915050565b600081359050613cbf81615744565b92915050565b600081519050613cd481615744565b92915050565b600081359050613ce98161575b565b92915050565b600081519050613cfe8161575b565b92915050565b600082601f830112613d1557600080fd5b8135613d25848260208601613b90565b91505092915050565b600082601f830112613d3f57600080fd5b8135613d4f848260208601613bce565b91505092915050565b600082601f830112613d6957600080fd5b8151613d79848260208601613c0c565b91505092915050565b600060e08284031215613d9457600080fd5b613d9e60e0615305565b90506000613dae84828501613ed7565b600083015250602082015167ffffffffffffffff811115613dce57600080fd5b613dda84828501613d58565b602083015250604082015167ffffffffffffffff811115613dfa57600080fd5b613e0684828501613d58565b604083015250606082015167ffffffffffffffff811115613e2657600080fd5b613e3284828501613d58565b606083015250608082015167ffffffffffffffff811115613e5257600080fd5b613e5e84828501613d58565b60808301525060a082015167ffffffffffffffff811115613e7e57600080fd5b613e8a84828501613d58565b60a08301525060c082015167ffffffffffffffff811115613eaa57600080fd5b613eb684828501613d58565b60c08301525092915050565b600081359050613ed181615772565b92915050565b600081519050613ee681615772565b92915050565b600060208284031215613efe57600080fd5b6000613f0c84828501613c4a565b91505092915050565b60008060408385031215613f2857600080fd5b6000613f3685828601613c4a565b9250506020613f4785828601613c4a565b9150509250929050565b600080600060608486031215613f6657600080fd5b6000613f7486828701613c4a565b9350506020613f8586828701613c4a565b9250506040613f9686828701613ec2565b9150509250925092565b60008060008060808587031215613fb657600080fd5b6000613fc487828801613c4a565b9450506020613fd587828801613c4a565b9350506040613fe687828801613ec2565b925050606085013567ffffffffffffffff81111561400357600080fd5b61400f87828801613d04565b91505092959194509250565b6000806040838503121561402e57600080fd5b600061403c85828601613c4a565b925050602061404d85828601613c86565b9150509250929050565b6000806040838503121561406a57600080fd5b600061407885828601613c4a565b925050602061408985828601613ec2565b9150509250929050565b6000602082840312156140a557600080fd5b60006140b384828501613c9b565b91505092915050565b6000602082840312156140ce57600080fd5b60006140dc84828501613cc5565b91505092915050565b600080604083850312156140f857600080fd5b600061410685828601613cb0565b925050602083013567ffffffffffffffff81111561412357600080fd5b61412f85828601613d2e565b9150509250929050565b60006020828403121561414b57600080fd5b600061415984828501613cda565b91505092915050565b60006020828403121561417457600080fd5b600061418284828501613cef565b91505092915050565b60006020828403121561419d57600080fd5b600082015167ffffffffffffffff8111156141b757600080fd5b6141c384828501613d58565b91505092915050565b6000602082840312156141de57600080fd5b60006141ec84828501613ec2565b91505092915050565b6000806040838503121561420857600080fd5b600061421685828601613ed7565b925050602083015167ffffffffffffffff81111561423357600080fd5b61423f85828601613c5f565b9150509250929050565b614252816154f8565b82525050565b614269614264826154f8565b615633565b82525050565b6142788161550a565b82525050565b61428781615516565b82525050565b61429e61429982615516565b615645565b82525050565b60006142af826153d1565b6142b981856153e7565b93506142c9818560208601615585565b6142d2816156f8565b840191505092915050565b60006142e8826153dc565b6142f281856153f8565b9350614302818560208601615585565b61430b816156f8565b840191505092915050565b60008154614323816155b8565b61432d8186615409565b9450600182166000811461434857600181146143595761438c565b60ff1983168652818601935061438c565b614362856153bc565b60005b8381101561438457815481890152600182019150602081019050614365565b838801955050505b50505092915050565b60006143a2602b836153f8565b91507f455243373231456e756d657261626c653a206f776e657220696e646578206f7560008301527f74206f6620626f756e64730000000000000000000000000000000000000000006020830152604082019050919050565b60006144086032836153f8565b91507f4552433732313a207472616e7366657220746f206e6f6e20455243373231526560008301527f63656976657220696d706c656d656e74657200000000000000000000000000006020830152604082019050919050565b600061446e6026836153f8565b91507f4f776e61626c653a206e6577206f776e657220697320746865207a65726f206160008301527f64647265737300000000000000000000000000000000000000000000000000006020830152604082019050919050565b60006144d4601c836153f8565b91507f4552433732313a20746f6b656e20616c7265616479206d696e746564000000006000830152602082019050919050565b6000614514602a83615409565b91507f3a207468697320746f6b656e2069732062696e6420746f20697473206f72696760008301527f696e616c206f776e6572000000000000000000000000000000000000000000006020830152602a82019050919050565b600061457a6024836153f8565b91507f4552433732313a207472616e7366657220746f20746865207a65726f2061646460008301527f72657373000000000000000000000000000000000000000000000000000000006020830152604082019050919050565b60006145e06019836153f8565b91507f4552433732313a20617070726f766520746f2063616c6c6572000000000000006000830152602082019050919050565b6000614620601883615409565b91507f29206261646765436f6e646974696f6e47726f757049443a00000000000000006000830152601882019050919050565b6000614660602c836153f8565b91507f4552433732313a206f70657261746f7220717565727920666f72206e6f6e657860008301527f697374656e7420746f6b656e00000000000000000000000000000000000000006020830152604082019050919050565b60006146c6602283615409565b91507f3a20626164676520616c726561647920696e206d696e74696e672070726f636560008301527f73730000000000000000000000000000000000000000000000000000000000006020830152602282019050919050565b600061472c6038836153f8565b91507f4552433732313a20617070726f76652063616c6c6572206973206e6f74206f7760008301527f6e6572206e6f7220617070726f76656420666f7220616c6c00000000000000006020830152604082019050919050565b6000614792605283615409565b91507f3a20617474656d707420746f206d696e74206120746f6b656e20776974686f7560008301527f742066756c6c66696c6c696e6720746865206174747269627574696f6e20636f60208301527f6e646974696f6e7320746f2067657420697400000000000000000000000000006040830152605282019050919050565b600061481e602a836153f8565b91507f4552433732313a2062616c616e636520717565727920666f7220746865207a6560008301527f726f2061646472657373000000000000000000000000000000000000000000006020830152604082019050919050565b60006148846029836153f8565b91507f4552433732313a206f776e657220717565727920666f72206e6f6e657869737460008301527f656e7420746f6b656e00000000000000000000000000000000000000000000006020830152604082019050919050565b60006148ea6020836153f8565b91507f4552433732313a206d696e7420746f20746865207a65726f20616464726573736000830152602082019050919050565b600061492a602c836153f8565b91507f4552433732313a20617070726f76656420717565727920666f72206e6f6e657860008301527f697374656e7420746f6b656e00000000000000000000000000000000000000006020830152604082019050919050565b60006149906020836153f8565b91507f4f776e61626c653a2063616c6c6572206973206e6f7420746865206f776e65726000830152602082019050919050565b60006149d06029836153f8565b91507f4552433732313a207472616e73666572206f6620746f6b656e2074686174206960008301527f73206e6f74206f776e00000000000000000000000000000000000000000000006020830152604082019050919050565b6000614a36602f836153f8565b91507f4552433732314d657461646174613a2055524920717565727920666f72206e6f60008301527f6e6578697374656e7420746f6b656e00000000000000000000000000000000006020830152604082019050919050565b6000614a9c601583615409565b91507f3a20626164676520616c7265616479206f776e656400000000000000000000006000830152601582019050919050565b6000614adc6021836153f8565b91507f4552433732313a20617070726f76616c20746f2063757272656e74206f776e6560008301527f72000000000000000000000000000000000000000000000000000000000000006020830152604082019050919050565b6000614b42601e83615409565b91507f3a206261646765206e6f7420696e206d696e74696e672070726f6365737300006000830152601e82019050919050565b6000614b826031836153f8565b91507f4552433732313a207472616e736665722063616c6c6572206973206e6f74206f60008301527f776e6572206e6f7220617070726f7665640000000000000000000000000000006020830152604082019050919050565b6000614be8602a83615409565b91507f3a206e6f742074686520757365722077686f206861732072657175657374656460008301527f2074686520746f6b656e000000000000000000000000000000000000000000006020830152602a82019050919050565b6000614c4e602c836153f8565b91507f455243373231456e756d657261626c653a20676c6f62616c20696e646578206f60008301527f7574206f6620626f756e647300000000000000000000000000000000000000006020830152604082019050919050565b6000614cb4601383615409565b91507f3a2077726f6e67207265717565737420494428000000000000000000000000006000830152601382019050919050565b614cf08161556c565b82525050565b614d07614d028261556c565b615661565b82525050565b6000614d198285614316565b9150614d2482614507565b9150614d308284614258565b6014820191508190509392505050565b6000614d4c8284614316565b9150614d57826146b9565b915081905092915050565b6000614d6e8284614316565b9150614d7982614785565b915081905092915050565b6000614d908284614316565b9150614d9b82614a8f565b915081905092915050565b6000614db28284614316565b9150614dbd82614b35565b915081905092915050565b6000614dd48284614316565b9150614ddf82614bdb565b915081905092915050565b6000614df68286614316565b9150614e0182614ca7565b9150614e0d828561428d565b602082019150614e1c82614613565b9150614e28828461428d565b602082019150819050949350505050565b6000614e458286614cf6565b602082019150614e558285614258565b601482019150614e658284614cf6565b602082019150819050949350505050565b6000602082019050614e8b6000830184614249565b92915050565b6000608082019050614ea66000830187614249565b614eb36020830186614249565b614ec06040830185614ce7565b8181036060830152614ed281846142a4565b905095945050505050565b6000608082019050614ef26000830187614249565b614eff602083018661427e565b614f0c604083018561427e565b8181036060830152614f1e81846142dd565b905095945050505050565b600060a082019050614f3e6000830188614249565b614f4b602083018761427e565b8181036040830152614f5d81866142dd565b90508181036060830152614f7181856142dd565b90508181036080830152614f8581846142dd565b90509695505050505050565b6000604082019050614fa66000830185614249565b614fb36020830184614ce7565b9392505050565b6000602082019050614fcf600083018461426f565b92915050565b6000604082019050614fea600083018561427e565b8181036020830152614ffc81846142dd565b90509392505050565b600060808201905061501a600083018761427e565b818103602083015261502c81866142dd565b9050818103604083015261504081856142dd565b9050818103606083015261505481846142dd565b905095945050505050565b6000602082019050818103600083015261507981846142dd565b905092915050565b6000602082019050818103600083015261509a81614395565b9050919050565b600060208201905081810360008301526150ba816143fb565b9050919050565b600060208201905081810360008301526150da81614461565b9050919050565b600060208201905081810360008301526150fa816144c7565b9050919050565b6000602082019050818103600083015261511a8161456d565b9050919050565b6000602082019050818103600083015261513a816145d3565b9050919050565b6000602082019050818103600083015261515a81614653565b9050919050565b6000602082019050818103600083015261517a8161471f565b9050919050565b6000602082019050818103600083015261519a81614811565b9050919050565b600060208201905081810360008301526151ba81614877565b9050919050565b600060208201905081810360008301526151da816148dd565b9050919050565b600060208201905081810360008301526151fa8161491d565b9050919050565b6000602082019050818103600083015261521a81614983565b9050919050565b6000602082019050818103600083015261523a816149c3565b9050919050565b6000602082019050818103600083015261525a81614a29565b9050919050565b6000602082019050818103600083015261527a81614acf565b9050919050565b6000602082019050818103600083015261529a81614b75565b9050919050565b600060208201905081810360008301526152ba81614c41565b9050919050565b60006020820190506152d66000830184614ce7565b92915050565b60006040820190506152f16000830185614ce7565b6152fe6020830184614249565b9392505050565b6000604051905081810181811067ffffffffffffffff8211171561532c5761532b6156c9565b5b8060405250919050565b600067ffffffffffffffff821115615351576153506156c9565b5b602082029050919050565b600067ffffffffffffffff821115615377576153766156c9565b5b601f19601f8301169050602081019050919050565b600067ffffffffffffffff8211156153a7576153a66156c9565b5b601f19601f8301169050602081019050919050565b60008190508160005260206000209050919050565b600081519050919050565b600081519050919050565b600082825260208201905092915050565b600082825260208201905092915050565b600081905092915050565b600061541f8261556c565b915061542a8361556c565b9250827fffffffffffffffffffffffffffffffffffffffffffffffffffffffffffffffff0382111561545f5761545e61566b565b5b828201905092915050565b60006154758261556c565b91506154808361556c565b9250817fffffffffffffffffffffffffffffffffffffffffffffffffffffffffffffffff04831182151516156154b9576154b861566b565b5b828202905092915050565b60006154cf8261556c565b91506154da8361556c565b9250828210156154ed576154ec61566b565b5b828203905092915050565b60006155038261554c565b9050919050565b60008115159050919050565b6000819050919050565b60007fffffffff0000000000000000000000000000000000000000000000000000000082169050919050565b600073ffffffffffffffffffffffffffffffffffffffff82169050919050565b6000819050919050565b82818337600083830152505050565b60005b838110156155a3578082015181840152602081019050615588565b838111156155b2576000848401525b50505050565b600060028204905060018216806155d057607f821691505b602082108114156155e4576155e361569a565b5b50919050565b60006155f58261556c565b91507fffffffffffffffffffffffffffffffffffffffffffffffffffffffffffffffff8214156156285761562761566b565b5b600182019050919050565b600061563e8261564f565b9050919050565b6000819050919050565b600061565a82615709565b9050919050565b6000819050919050565b7f4e487b7100000000000000000000000000000000000000000000000000000000600052601160045260246000fd5b7f4e487b7100000000000000000000000000000000000000000000000000000000600052602260045260246000fd5b7f4e487b7100000000000000000000000000000000000000000000000000000000600052604160045260246000fd5b6000601f19601f8301169050919050565b60008160601b9050919050565b61571f816154f8565b811461572a57600080fd5b50565b6157368161550a565b811461574157600080fd5b50565b61574d81615516565b811461575857600080fd5b50565b61576481615520565b811461576f57600080fd5b50565b61577b8161556c565b811461578657600080fd5b5056fea2646970667358221220d169c9ce429ee8a795109434fda7ef7402f600b569f40ebb46ddc82690d5730164736f6c63430008000033608060405234801561001057600080fd5b5060006100216100c460201b60201c565b9050806000806101000a81548173ffffffffffffffffffffffffffffffffffffffff021916908373ffffffffffffffffffffffffffffffffffffffff1602179055508073ffffffffffffffffffffffffffffffffffffffff16600073ffffffffffffffffffffffffffffffffffffffff167f8be0079c531659141344cd1fd0a4f28419497f9722a3daafe3b4186f6b6457e060405160405180910390a3506100cc565b600033905090565b610ef0806100db6000396000f3fe608060405234801561001057600080fd5b50600436106100575760003560e01c80631c5f6d5d1461005c578063715018a61461008c57806376670032146100965780638da5cb5b146100b2578063f2fde38b146100d0575b600080fd5b6100766004803603810190610071919061098a565b6100ec565b6040516100839190610c5f565b60405180910390f35b61009461027f565b005b6100b060048036038101906100ab919061090f565b6103b9565b005b6100ba6105b3565b6040516100c79190610c44565b60405180910390f35b6100ea60048036038101906100e591906108e6565b6105dc565b005b60006100f6610785565b73ffffffffffffffffffffffffffffffffffffffff166101146105b3565b73ffffffffffffffffffffffffffffffffffffffff161461016a576040517f08c379a000000000000000000000000000000000000000000000000000000000815260040161016190610cba565b60405180910390fd5b610174600161078d565b428661018060016107a3565b60405160200161019293929190610c07565b6040516020818303038152906040528051906020012090506000600260008381526020019081526020016000209050868160000160006101000a81548173ffffffffffffffffffffffffffffffffffffffff021916908373ffffffffffffffffffffffffffffffffffffffff16021790555060018160000160146101000a81548160ff021916908315150217905550858160010181905550848160020190805190602001906102429291906107b1565b508381600301908051906020019061025b9291906107b1565b50828160040190805190602001906102749291906107b1565b505095945050505050565b610287610785565b73ffffffffffffffffffffffffffffffffffffffff166102a56105b3565b73ffffffffffffffffffffffffffffffffffffffff16146102fb576040517f08c379a00000000000000000000000000000000000000000000000000000000081526004016102f290610cba565b60405180910390fd5b600073ffffffffffffffffffffffffffffffffffffffff1660008054906101000a900473ffffffffffffffffffffffffffffffffffffffff1673ffffffffffffffffffffffffffffffffffffffff167f8be0079c531659141344cd1fd0a4f28419497f9722a3daafe3b4186f6b6457e060405160405180910390a360008060006101000a81548173ffffffffffffffffffffffffffffffffffffffff021916908373ffffffffffffffffffffffffffffffffffffffff160217905550565b6103c1610785565b73ffffffffffffffffffffffffffffffffffffffff166103df6105b3565b73ffffffffffffffffffffffffffffffffffffffff1614610435576040517f08c379a000000000000000000000000000000000000000000000000000000000815260040161042c90610cba565b60405180910390fd5b83838360006002600083815260200190815260200160002090508373ffffffffffffffffffffffffffffffffffffffff168160000160009054906101000a900473ffffffffffffffffffffffffffffffffffffffff1673ffffffffffffffffffffffffffffffffffffffff161480156104b15750828160010154145b6104f0576040517f08c379a00000000000000000000000000000000000000000000000000000000081526004016104e790610cda565b60405180910390fd5b8560006002600083815260200190815260200160002090508060000160149054906101000a900460ff16610559576040517f08c379a000000000000000000000000000000000000000000000000000000000815260040161055090610c9a565b60405180910390fd5b6000600260008a8152602001908152602001600020905060008160000160146101000a81548160ff021916908315150217905550878160050190805190602001906105a59291906107b1565b505050505050505050505050565b60008060009054906101000a900473ffffffffffffffffffffffffffffffffffffffff16905090565b6105e4610785565b73ffffffffffffffffffffffffffffffffffffffff166106026105b3565b73ffffffffffffffffffffffffffffffffffffffff1614610658576040517f08c379a000000000000000000000000000000000000000000000000000000000815260040161064f90610cba565b60405180910390fd5b600073ffffffffffffffffffffffffffffffffffffffff168173ffffffffffffffffffffffffffffffffffffffff1614156106c8576040517f08c379a00000000000000000000000000000000000000000000000000000000081526004016106bf90610c7a565b60405180910390fd5b8073ffffffffffffffffffffffffffffffffffffffff1660008054906101000a900473ffffffffffffffffffffffffffffffffffffffff1673ffffffffffffffffffffffffffffffffffffffff167f8be0079c531659141344cd1fd0a4f28419497f9722a3daafe3b4186f6b6457e060405160405180910390a3806000806101000a81548173ffffffffffffffffffffffffffffffffffffffff021916908373ffffffffffffffffffffffffffffffffffffffff16021790555050565b600033905090565b6001816000016000828254019250508190555050565b600081600001549050919050565b8280546107bd90610dc1565b90600052602060002090601f0160209004810192826107df5760008555610826565b82601f106107f857805160ff1916838001178555610826565b82800160010185558215610826579182015b8281111561082557825182559160200191906001019061080a565b5b5090506108339190610837565b5090565b5b80821115610850576000816000905550600101610838565b5090565b600061086761086284610d2b565b610cfa565b90508281526020810184848401111561087f57600080fd5b61088a848285610db2565b509392505050565b6000813590506108a181610e8c565b92915050565b6000813590506108b681610ea3565b92915050565b600082601f8301126108cd57600080fd5b81356108dd848260208601610854565b91505092915050565b6000602082840312156108f857600080fd5b600061090684828501610892565b91505092915050565b6000806000806080858703121561092557600080fd5b600061093387828801610892565b9450506020610944878288016108a7565b9350506040610955878288016108a7565b925050606085013567ffffffffffffffff81111561097257600080fd5b61097e878288016108bc565b91505092959194509250565b600080600080600060a086880312156109a257600080fd5b60006109b088828901610892565b95505060206109c1888289016108a7565b945050604086013567ffffffffffffffff8111156109de57600080fd5b6109ea888289016108bc565b935050606086013567ffffffffffffffff811115610a0757600080fd5b610a13888289016108bc565b925050608086013567ffffffffffffffff811115610a3057600080fd5b610a3c888289016108bc565b9150509295509295909350565b610a5281610d6c565b82525050565b610a69610a6482610d6c565b610df3565b82525050565b610a7881610d7e565b82525050565b6000610a8b602683610d5b565b91507f4f776e61626c653a206e6577206f776e657220697320746865207a65726f206160008301527f64647265737300000000000000000000000000000000000000000000000000006020830152604082019050919050565b6000610af1603183610d5b565b91507f426164676551756572794f7261636c653a2071756572792068617320616c726560008301527f616479206265656e207265736f6c7665640000000000000000000000000000006020830152604082019050919050565b6000610b57602083610d5b565b91507f4f776e61626c653a2063616c6c6572206973206e6f7420746865206f776e65726000830152602082019050919050565b6000610b97603083610d5b565b91507f426164676551756572794f7261636c653a20756e65787065637465642072657160008301527f75657374206964656e74696669657273000000000000000000000000000000006020830152604082019050919050565b610c01610bfc82610da8565b610e17565b82525050565b6000610c138286610bf0565b602082019150610c238285610a58565b601482019150610c338284610bf0565b602082019150819050949350505050565b6000602082019050610c596000830184610a49565b92915050565b6000602082019050610c746000830184610a6f565b92915050565b60006020820190508181036000830152610c9381610a7e565b9050919050565b60006020820190508181036000830152610cb381610ae4565b9050919050565b60006020820190508181036000830152610cd381610b4a565b9050919050565b60006020820190508181036000830152610cf381610b8a565b9050919050565b6000604051905081810181811067ffffffffffffffff82111715610d2157610d20610e50565b5b8060405250919050565b600067ffffffffffffffff821115610d4657610d45610e50565b5b601f19601f8301169050602081019050919050565b600082825260208201905092915050565b6000610d7782610d88565b9050919050565b6000819050919050565b600073ffffffffffffffffffffffffffffffffffffffff82169050919050565b6000819050919050565b82818337600083830152505050565b60006002820490506001821680610dd957607f821691505b60208210811415610ded57610dec610e21565b5b50919050565b6000610dfe82610e05565b9050919050565b6000610e1082610e7f565b9050919050565b6000819050919050565b7f4e487b7100000000000000000000000000000000000000000000000000000000600052602260045260246000fd5b7f4e487b7100000000000000000000000000000000000000000000000000000000600052604160045260246000fd5b60008160601b9050919050565b610e9581610d6c565b8114610ea057600080fd5b50565b610eac81610d7e565b8114610eb757600080fd5b5056fea264697066735822122020d3b22a8e0b57c508be9d66d8ddf8ca03a57ea0138dd14128ade1f6e719019b64736f6c63430008000033",
  "immutableReferences": {},
  "source": "// contracts/BadgeTokenFactory.sol\n// SPDX-License-Identifier: MIT\npragma solidity ^0.8.0;\n\nimport \"../node_modules/@openzeppelin/contracts/utils/Counters.sol\";\nimport \"./BadgeDefinitionFactory.sol\";\nimport \"./BadgeQueryOracle.sol\";\n\n/**\n * @title BadgeTokenFactory\n * @author Geoffrey Garcia\n * @notice Contract to use to mint and to transfer (if applicable based on associated BadgeDefinition) BadgeToken that are ERC721 tokens.\n * @dev The BadgeTokenFactory contract provides basic structures, functions & modifiers that allows to manage BadgeToken as ERC721 token.\n */\ncontract BadgeTokenFactory is BadgeFactory {\n\n    using Counters for Counters.Counter;\n\n    /**\n    * @notice Event emitted to request for a query to be run.\n    * @dev Event emitted to request for a query to be run for BadgeToken minting.\n    * @param _requestID The ID of the query.\n    * @param _indexer The service indexing the data (possible values: \"thegraph, \"covalent\").\n    * @param _protocol The set/subgraph on the indexer to use (possible values: \"uniswap\", \"compound\" ,\"aave\" ,\"ethereum\").\n    * @param _query The query to run.\n    */\n    event QueryRequest(bytes32 _requestID, string _indexer, string _protocol, string _query);\n\n    /**\n    * @notice Event emitted after the query and its result have been record into the blockchain.\n    * @dev Event emitted fter the query and its result have been record into the blockchain for BadgeToken minting.\n    * @param _requestID The ID of the query.\n    * @param _queryResult The result of the query.\n    */\n    event QueryResultReceived(bytes32 _requestID, string _queryResult);\n\n    /**\n    * @notice Event emitted when a BadgeToken is ready to be minted.\n    * @dev Event emitted when a BadgeToken is ready to be minted.\n    * @param _caller The Ethereum address which has requested for the right to mint the token.\n    * @param _badgeDefinitionId The ID of BadgeDefinition associated to this BadgeToken.\n    */\n    event BadgeTokenReady(address _caller, uint _badgeDefinitionId);\n\n    /**\n    * @notice Event emitted after a BadgeToken minting.\n    * @dev Event emitted after a BadgeToken minting.\n    * @param _badgeTokenId The ID of the BadgeToken.\n    * @param _originalOwner The Ethereum address of the user that has minted the token.\n    */\n    event NewBadgeToken(uint _badgeTokenId, address _originalOwner);\n\n    // Badge token structure\n    struct BadgeToken {\n        uint badgeDefinitionId;                                 // the ID of BadgeDefinition associated to this BadgeToken\n        address originalOwner;                                  // the Ethereum address of the user that has minted the token\n        string[maxNumberOfAttributionConditions] specialValues; // the special value associated with this badge (optional)\n    }\n\n    // Pending minting structure\n    struct PendingMinting {\n        address caller;                                // the Ethereum address which has requested for the query result\n        uint badgeDefinitionId;                        // the ID of BadgeDefinition associated to the BadgeToken the user want to mint\n        uint numberOfConditions;                       // the number of conditions that have to be evaluated through as many queries\n        mapping (uint => bytes32) _queryIndex;            // the IDs of the queries\n        mapping (bytes32 => bool) _pendingQueryStatus;    // the current status of the queries (true if pending)\n        mapping (bytes32 => string) _queryResult;         // the results of the queries (usable only if associated _pendingQueryStatus value is false)\n        mapping (bytes32 => string) _evaluationOperator;  // the operator allowing to compare the query return\n        mapping (bytes32 => string) _evaluationCondition; // the value to compare with the query result\n    }\n\n    // Storage of the badge tokens\n    BadgeToken[] private _badgeTokens;                              // BadgeToken storage\n    mapping(address => mapping(uint => uint)) private _ownedBadges; // List of BadgeToken IDs per owner per BadgeDefinition\n    string badgeTokenSymbol = \"BTO\";                                // Symbol of the ERC721 tokens of the BadgeToken\n\n    // Storage of the badge minting\n    Counters.Counter private _mintingNonce;                                     // a nonce injected to build the ID of the condition group to mint the badge\n    mapping(bytes32 => PendingMinting) private _pendingMintings;                // the list of pending badge mintings\n    mapping(address => mapping(uint => bytes32)) private _pendingMintingBadges; // List of pending badge mintings per owner per BadgeDefinition\n    mapping(bytes32 => bytes32) private _pendingQueries;                        // the list of pending queriesn\n\n    // Reference to the BadgeDefinitionFactory contract allowing to manage BadgeDefinition\n    BadgeDefinitionFactory badgeDefinitionFactory;\n    // Reference to the BadgeQueryOracle contract allowing to run query on off-chain ressources\n    BadgeQueryOracle badgeQueryOracle;\n\n    /**\n    * @dev See {ERC721-constructor}.\n    * @param _badgeDefinitionFactoryAddress The Ethereum address of the BadgeDefinitionFactory contract allowing to manage BadgeDefinition.\n    */\n    constructor(address _badgeDefinitionFactoryAddress) BadgeFactory(\"BadgeToken\", badgeTokenSymbol) {\n        // Linking this contract with the already deployed one BadgeDefinitionFactory\n        badgeDefinitionFactory = BadgeDefinitionFactory(_badgeDefinitionFactoryAddress);\n        // Linking this contract with a freshly instantiated BadgeQueryOracle\n        badgeQueryOracle = new BadgeQueryOracle();\n    }\n\n    /**\n    * @dev Throws if the badge is already owned.\n    * @param _badgeDefinitionId The ID of BadgeDefinition associated to this BadgeToken.\n    */\n    modifier notOwned(uint _badgeDefinitionId) {\n        require(_ownedBadges[_msgSender()][_badgeDefinitionId] == 0, string(abi.encodePacked(badgeTokenSymbol, \": badge already owned\")));\n        //TODO: check orignalOwner instead?\n        _;\n    }\n\n    /**\n    * @dev Throws if the badge minting process is already in progress.\n    * @param _badgeDefinitionId The ID of BadgeDefinition associated to this BadgeToken.\n    */\n    modifier isNotPendingMinting(uint _badgeDefinitionId) {\n        require(_pendingMintingBadges[_msgSender()][_badgeDefinitionId] == 0, string(abi.encodePacked(badgeTokenSymbol, \": badge already in minting process\")));\n        _;\n    }\n\n    /**\n    * @dev Throws if the badge minting process is not in progress.\n    * @param _badgeDefinitionId The ID of BadgeDefinition associated to this BadgeToken.\n    */\n    modifier isPendingMinting(uint _badgeDefinitionId) {\n        require(_pendingMintingBadges[_msgSender()][_badgeDefinitionId] != 0, string(abi.encodePacked(badgeTokenSymbol, \": badge not in minting process\")));\n        _;\n    }\n\n    /**\n    * @notice Function to mint a BadgeToken as ERC721 tokens.\n    * @dev Creates & store a BadgeToken.\n    * @param _badgeDefinitionId The ID of BadgeDefinition associated to this BadgeToken.\n    */\n    function requestBadgeTokenMinting(uint _badgeDefinitionId) notOwned(_badgeDefinitionId) isNotPendingMinting(_badgeDefinitionId) public {\n        // Creating for the penting minting\n        _mintingNonce.increment();\n        bytes32 badgeConditionGroupID = keccak256(abi.encodePacked(block.timestamp, _msgSender(), _mintingNonce.current()));\n\n        // Add the badge minting to the ones asked by the user\n        _pendingMintingBadges[_msgSender()][_badgeDefinitionId] = badgeConditionGroupID;\n\n        // Storing for the penting minting\n        PendingMinting storage pendingMinting = _pendingMintings[badgeConditionGroupID];\n        pendingMinting.caller = _msgSender();\n\n        // Get the BadgeAttributionCondition list associated to this BadgeDefinition\n        BadgeAttributionCondition[maxNumberOfAttributionConditions] memory badgeAttributionCondition;\n        uint numberOfConditions = 0;\n        (numberOfConditions, badgeAttributionCondition) = badgeDefinitionFactory.getBadgeDefinitionAttributionCondition(_badgeDefinitionId);\n        pendingMinting.numberOfConditions = numberOfConditions;\n\n        // Check for every condition in the list\n        for(uint i=0; i < numberOfConditions; i++){\n            // Ask the Oracle to obtain the result of the query\n            bytes32 requestID = badgeQueryOracle.runQuery(_msgSender(), badgeConditionGroupID, badgeAttributionCondition[i].indexer, badgeAttributionCondition[i].protocol, badgeAttributionCondition[i].query);\n            \n            // Asking for the query to be run\n            emit QueryRequest(requestID, badgeAttributionCondition[i].indexer, badgeAttributionCondition[i].protocol, badgeAttributionCondition[i].query);\n            \n            // Store the references & status of the query\n            _pendingQueries[requestID] = badgeConditionGroupID;\n            pendingMinting._queryIndex[i] = requestID;\n            pendingMinting._pendingQueryStatus[requestID] = true;\n            pendingMinting._evaluationOperator[requestID] = badgeAttributionCondition[i].operator;\n            pendingMinting._evaluationCondition[requestID] = badgeAttributionCondition[i].condition;\n        }\n    }\n\n    /**\n    * @notice Function to get the result of a query.\n    * @dev Store the result of the query then ask for the Oracle to write it into the blockchain.\n    * @param _requestID The ID of the query.\n    * @param _queryResult The result of the query.\n    */\n    function updateBadgeTokenMinting(bytes32 _requestID, string memory _queryResult) public {\n        bytes32 badgeConditionGroupID = _pendingQueries[_requestID];\n        require(badgeConditionGroupID != 0, string(abi.encodePacked(badgeTokenSymbol, \": wrong request ID(\", _requestID, \") badgeConditionGroupID:\", badgeConditionGroupID)));\n\n        // Storing the result\n        PendingMinting storage pendingMinting = _pendingMintings[badgeConditionGroupID];\n        pendingMinting._pendingQueryStatus[_requestID] = false;\n        pendingMinting._queryResult[_requestID] = _queryResult;\n\n        // Sending the result to the Oracle\n        badgeQueryOracle.recordQueryResult(pendingMinting.caller, badgeConditionGroupID, _requestID, _queryResult);\n\n        // Telling the query has been recorded\n        emit QueryResultReceived(_requestID, _queryResult);\n\n        // Evaluating overall minting process status\n        bool evaluationResult = false;\n        for(uint i=0; (i < pendingMinting.numberOfConditions) && (evaluationResult == false); i++){\n            // Retrieving another query ID\n            bytes32 requestID = pendingMinting._queryIndex[i];\n            \n            // Evaluate if the condition is met\n            evaluationResult = pendingMinting._pendingQueryStatus[requestID];\n        }\n\n        // Emetting a signal if all the queries have been run\n        if(evaluationResult == false){\n            emit BadgeTokenReady(pendingMinting.caller, pendingMinting.badgeDefinitionId);\n        }\n    }\n\n    /**\n    * @notice Function to mint a BadgeToken as ERC721 tokens.\n    * @dev Creates & store a BadgeToken.\n    * @param _badgeDefinitionId The ID of BadgeDefinition associated to this BadgeToken.\n    * @return _badgeTokenId The ID of the new BadgeToken.\n    */\n    function mintBadgeToken(uint _badgeDefinitionId) notOwned(_badgeDefinitionId) isPendingMinting(_badgeDefinitionId) public returns (uint _badgeTokenId) {\n        // Identifying the badge the user want to mint\n        bytes32 badgeConditionGroupID = _pendingMintingBadges[_msgSender()][_badgeDefinitionId];\n        PendingMinting storage pendingMinting = _pendingMintings[badgeConditionGroupID];\n        require(_msgSender() == pendingMinting.caller, string(abi.encodePacked(badgeTokenSymbol, \": not the user who has requested the token\")));\n\n        string[maxNumberOfAttributionConditions] memory _specialValues;\n        require(_assessAttributionCondition(pendingMinting, _specialValues), string(abi.encodePacked(badgeTokenSymbol, \": attempt to mint a token without fullfilling the attribution conditions to get it\")));\n        \n        // Storing the BadgeToken\n        _badgeTokens.push(BadgeToken({ badgeDefinitionId: _badgeDefinitionId, originalOwner: _msgSender(), specialValues: _specialValues}));\n        \n        // Getting the ID of the new BadgeToken\n        // uint badgeTokenId = _badgeTokens.length - 1;\n        uint badgeTokenId = _badgeTokens.length;\n\n        // Add the badge to the ones owned by the user\n        _ownedBadges[_msgSender()][_badgeDefinitionId] = badgeTokenId;\n\n        // Minting the BadgeToken\n        _safeMint(_msgSender(), badgeTokenId);\n\n        // Removing the stored pending badge minting\n        for(uint i=0; i < pendingMinting.numberOfConditions; i++){\n            bytes32 requestID = pendingMinting._queryIndex[i];\n            delete _pendingQueries[requestID];\n            delete pendingMinting._pendingQueryStatus[requestID];\n            delete pendingMinting._queryResult[requestID];\n            delete pendingMinting._evaluationOperator[requestID];\n            delete pendingMinting._evaluationCondition[requestID];\n            delete pendingMinting._queryIndex[i];\n        }\n        delete _pendingMintingBadges[_msgSender()][_badgeDefinitionId];\n        delete _pendingMintings[badgeConditionGroupID];\n\n        // Emit the appropriate event\n        emit NewBadgeToken(badgeTokenId, _msgSender());\n\n        return badgeTokenId;\n    }\n\n    /**\n    * @notice Function to test if the badge produced using a BadgeDefinition can be mint.\n    * @dev Check if the conditions to mint the badge are met.\n    * @param _pendingMinting The pending badge minting structure.\n    * @param _specialValues The special values to be stored (optional).\n    * @return _evaluationResult The result of the test.\n    */\n    function _assessAttributionCondition(PendingMinting storage _pendingMinting, string[maxNumberOfAttributionConditions] memory _specialValues) private view returns (bool _evaluationResult) {\n        _evaluationResult = true;\n\n        // Check for every condition in the list\n        for(uint i=0; (i < _pendingMinting.numberOfConditions) && (_evaluationResult == true); i++){\n            // Retrieving the query ID\n            bytes32 requestID = _pendingMinting._queryIndex[i];\n            \n            // Evaluate if the condition is met\n            _evaluationResult = _evaluateCondition(_pendingMinting._queryResult[requestID], _pendingMinting._evaluationOperator[requestID], _pendingMinting._evaluationCondition[requestID], _specialValues[i]);\n        } \n\n        return _evaluationResult;\n    }\n\n    /**\n    * @notice Function to evaluate a condition.\n    * @dev Check if a condition to mint a badge is met.\n    * @param _queryResult The result of the query.\n    * @param _operator The operator allowing to compare the query return.\n    * @param _condition The value to compare with the query result.\n    * @param _specialValue The special value to be stored (optional).\n    * @return _evaluationResult The result of the test.\n    */\n    function _evaluateCondition(string memory _queryResult, string memory _operator, string memory _condition, string memory _specialValue) private pure returns (bool _evaluationResult) {\n        _evaluationResult = false;\n\n        bytes32 operatorHash = keccak256(bytes(_operator));\n\n        // Evaluate the query return\n        if(operatorHash == keccak256(bytes(\"<\"))){\n            _evaluationResult = stringToUint(_queryResult) < stringToUint(_condition);\n        } else{\n            if(operatorHash == keccak256(bytes(\"<=\"))){\n                _evaluationResult = stringToUint(_queryResult) <= stringToUint(_condition);\n            } else{\n                if(operatorHash == keccak256(bytes(\">\"))){\n                    _evaluationResult = stringToUint(_queryResult) > stringToUint(_condition);\n                } else{\n                    if(operatorHash == keccak256(bytes(\">=\"))){\n                        _evaluationResult = stringToUint(_queryResult) >= stringToUint(_condition);\n                        // _evaluationResult = false;\n                    } else{\n                        if(operatorHash == keccak256(bytes(\"==\"))){\n                            _evaluationResult = stringToUint(_queryResult) == stringToUint(_condition);\n                        } else{\n                            if(operatorHash == keccak256(bytes(\"!=\"))){\n                                _evaluationResult = stringToUint(_queryResult) != stringToUint(_condition);\n                            } else{\n                                if(operatorHash == keccak256(bytes(\"special\"))){\n                                    _evaluationResult = true;\n                                    _specialValue = _queryResult;\n                                } else{\n\n                                } \n                            } \n                        } \n                    } \n                } \n            } \n        } \n\n        return _evaluationResult;\n    }\n\n    /**\n    * @notice Function to test if the badge produced using a BadgeDefinition can be mint.\n    * @dev Check if the conditions to mint the badge are met.\n    * @param _owner The Ethereum address of the user.\n    * @param _badgeDefinitionId The ID of BadgeDefinition.\n    * @return _evaluationResult The result of the test.\n    */\n    function doesOwnBadgeFromGivenDefinition(address _owner, uint _badgeDefinitionId) public view returns (bool _evaluationResult) {\n        _evaluationResult = true;\n\n        // Check for a BadgeToken potentially owned by this user associated to the BadgeDefinition\n        if(_ownedBadges[_owner][_badgeDefinitionId] == 0){\n            _evaluationResult = false;\n        } \n\n        return _evaluationResult;\n    }\n\n    /**\n    * @notice Function to transfer a token (if applicable).\n    * @dev Transfers `tokenId` from `from` to `to`.\n    * @param from The Ethereum address of the user that own the token.\n    * @param to The Ethereum address of the user that could receive the token.\n    * @param tokenId The ID of the BadgeToken.\n    */\n    function _transfer(address from, address to, uint256 tokenId) internal override {\n        uint tokenIdex = tokenId - 1;\n\n        // Check if the token can be transfered\n        require(badgeDefinitionFactory.isBadgeTransferable(_badgeTokens[tokenIdex].badgeDefinitionId), string(abi.encodePacked(badgeTokenSymbol, \": this token is bind to its original owner\", _badgeTokens[tokenIdex].originalOwner)));\n\n        // Transfer the token (if applicable)\n        super._transfer(from, to, tokenId);\n    }\n\n    /**\n    * @notice Function to get the URI associated to a token.\n    * @dev Returns the Uniform Resource Identifier (URI) for `tokenId` token.\n    * @param tokenId The ID of the BadgeToken.\n    * @return The result URI associated to the token.\n    */\n    function tokenURI(uint256 tokenId) public view override returns (string memory) {\n        require(_exists(tokenId), \"ERC721Metadata: URI query for nonexistent token\");\n\n        uint tokenIdex = tokenId - 1;\n        \n        string memory URI = badgeDefinitionFactory.tokenURI(_badgeTokens[tokenIdex].badgeDefinitionId);\n        return bytes(URI).length > 0\n            ? string(URI)\n            : '';\n    }\n\n    function stringToUint(string memory s) private pure returns (uint result) {\n        bytes memory b = bytes(s);\n        uint i;\n        result = 0;\n        for (i = 0; i < b.length; i++) {\n            uint c = uint(uint8(b[i]));\n            if (c >= 48 && c <= 57) {\n                result = result * 10 + (c - 48);\n            }\n        }\n    }\n}",
  "sourcePath": "/home/cryptomarabout/Documents/ethscore/EtherScore/contracts/contracts/BadgeTokenFactory.sol",
  "compiler": {
    "name": "solc",
    "version": "0.8.0+commit.c7dfd78e.Emscripten.clang"
  },
  "schemaVersion": "3.4.1",
  "updatedAt": "2021-07-03T17:06:45.660Z",
  "networkType": "ethereum",
  "devdoc": {
    "author": "Geoffrey Garcia",
    "details": "The BadgeTokenFactory contract provides basic structures, functions & modifiers that allows to manage BadgeToken as ERC721 token.",
    "events": {
      "BadgeTokenReady(address,uint256)": {
        "details": "Event emitted when a BadgeToken is ready to be minted.",
        "params": {
          "_badgeDefinitionId": "The ID of BadgeDefinition associated to this BadgeToken.",
          "_caller": "The Ethereum address which has requested for the right to mint the token."
        }
      },
      "NewBadgeToken(uint256,address)": {
        "details": "Event emitted after a BadgeToken minting.",
        "params": {
          "_badgeTokenId": "The ID of the BadgeToken.",
          "_originalOwner": "The Ethereum address of the user that has minted the token."
        }
      },
      "QueryRequest(bytes32,string,string,string)": {
        "details": "Event emitted to request for a query to be run for BadgeToken minting.",
        "params": {
          "_indexer": "The service indexing the data (possible values: \"thegraph, \"covalent\").",
          "_protocol": "The set/subgraph on the indexer to use (possible values: \"uniswap\", \"compound\" ,\"aave\" ,\"ethereum\").",
          "_query": "The query to run.",
          "_requestID": "The ID of the query."
        }
      },
      "QueryResultReceived(bytes32,string)": {
        "details": "Event emitted fter the query and its result have been record into the blockchain for BadgeToken minting.",
        "params": {
          "_queryResult": "The result of the query.",
          "_requestID": "The ID of the query."
        }
      }
    },
    "kind": "dev",
    "methods": {
      "approve(address,uint256)": {
        "details": "See {IERC721-approve}."
      },
      "balanceOf(address)": {
        "details": "See {IERC721-balanceOf}."
      },
      "constructor": {
        "details": "See {ERC721-constructor}.",
        "params": {
          "_badgeDefinitionFactoryAddress": "The Ethereum address of the BadgeDefinitionFactory contract allowing to manage BadgeDefinition."
        }
      },
      "doesOwnBadgeFromGivenDefinition(address,uint256)": {
        "details": "Check if the conditions to mint the badge are met.",
        "params": {
          "_badgeDefinitionId": "The ID of BadgeDefinition.",
          "_owner": "The Ethereum address of the user."
        },
        "returns": {
          "_evaluationResult": "The result of the test."
        }
      },
      "getApproved(uint256)": {
        "details": "See {IERC721-getApproved}."
      },
      "isApprovedForAll(address,address)": {
        "details": "See {IERC721-isApprovedForAll}."
      },
      "mintBadgeToken(uint256)": {
        "details": "Creates & store a BadgeToken.",
        "params": {
          "_badgeDefinitionId": "The ID of BadgeDefinition associated to this BadgeToken."
        },
        "returns": {
          "_badgeTokenId": "The ID of the new BadgeToken."
        }
      },
      "name()": {
        "details": "See {IERC721Metadata-name}."
      },
      "owner()": {
        "details": "Returns the address of the current owner."
      },
      "ownerOf(uint256)": {
        "details": "See {IERC721-ownerOf}."
      },
      "renounceOwnership()": {
        "details": "Leaves the contract without owner. It will not be possible to call `onlyOwner` functions anymore. Can only be called by the current owner. NOTE: Renouncing ownership will leave the contract without an owner, thereby removing any functionality that is only available to the owner."
      },
      "requestBadgeTokenMinting(uint256)": {
        "details": "Creates & store a BadgeToken.",
        "params": {
          "_badgeDefinitionId": "The ID of BadgeDefinition associated to this BadgeToken."
        }
      },
      "safeTransferFrom(address,address,uint256)": {
        "details": "See {IERC721-safeTransferFrom}."
      },
      "safeTransferFrom(address,address,uint256,bytes)": {
        "details": "See {IERC721-safeTransferFrom}."
      },
      "setApprovalForAll(address,bool)": {
        "details": "See {IERC721-setApprovalForAll}."
      },
      "supportsInterface(bytes4)": {
        "details": "See {IERC165-supportsInterface}."
      },
      "symbol()": {
        "details": "See {IERC721Metadata-symbol}."
      },
      "tokenByIndex(uint256)": {
        "details": "See {IERC721Enumerable-tokenByIndex}."
      },
      "tokenOfOwnerByIndex(address,uint256)": {
        "details": "See {IERC721Enumerable-tokenOfOwnerByIndex}."
      },
      "tokenURI(uint256)": {
        "details": "Returns the Uniform Resource Identifier (URI) for `tokenId` token.",
        "params": {
          "tokenId": "The ID of the BadgeToken."
        },
        "returns": {
          "_0": "The result URI associated to the token."
        }
      },
      "totalSupply()": {
        "details": "See {IERC721Enumerable-totalSupply}."
      },
      "transferFrom(address,address,uint256)": {
        "details": "See {IERC721-transferFrom}."
      },
      "transferOwnership(address)": {
        "details": "Transfers ownership of the contract to a new account (`newOwner`). Can only be called by the current owner."
      },
      "updateBadgeTokenMinting(bytes32,string)": {
        "details": "Store the result of the query then ask for the Oracle to write it into the blockchain.",
        "params": {
          "_queryResult": "The result of the query.",
          "_requestID": "The ID of the query."
        }
      }
    },
    "title": "BadgeTokenFactory",
    "version": 1
  },
  "userdoc": {
    "events": {
      "BadgeTokenReady(address,uint256)": {
        "notice": "Event emitted when a BadgeToken is ready to be minted."
      },
      "NewBadgeToken(uint256,address)": {
        "notice": "Event emitted after a BadgeToken minting."
      },
      "QueryRequest(bytes32,string,string,string)": {
        "notice": "Event emitted to request for a query to be run."
      },
      "QueryResultReceived(bytes32,string)": {
        "notice": "Event emitted after the query and its result have been record into the blockchain."
      }
    },
    "kind": "user",
    "methods": {
      "doesOwnBadgeFromGivenDefinition(address,uint256)": {
        "notice": "Function to test if the badge produced using a BadgeDefinition can be mint."
      },
      "mintBadgeToken(uint256)": {
        "notice": "Function to mint a BadgeToken as ERC721 tokens."
      },
      "requestBadgeTokenMinting(uint256)": {
        "notice": "Function to mint a BadgeToken as ERC721 tokens."
      },
      "tokenURI(uint256)": {
        "notice": "Function to get the URI associated to a token."
      },
      "updateBadgeTokenMinting(bytes32,string)": {
        "notice": "Function to get the result of a query."
      }
    },
    "notice": "Contract to use to mint and to transfer (if applicable based on associated BadgeDefinition) BadgeToken that are ERC721 tokens.",
    "version": 1
  }
}